:100000000C942A000C946D000C946D000C946D00FF
:100010000C946D000C946D000C946D000C946D00AC
:100020000C946D000C946D000C946D000C946D009C
:100030000C946D000C946D000C946D000C946D008C
:100040000C946D000C946D000C946D000C946D007C
:100050000C946D0011241FBECFE5D8E0DEBFCDBFEC
:0C0060000E9436000C943400F894FFCF8E
:10006C000E9468000E946F000E947100B09B04C047
:10007C00AA9AAF9A939A03C0AA98AF989398869B22
:10008C0005C081E090E00E945C0004C080E090E03C
:10009C000E945C00829B05C081E090E00E9462009F
:0C00AC00E5CF80E090E00E946200E0CF11
:0C00B800892B11F0DA9A0895DA98089567
:0C00C400892B11F0DB9A0895DB98089559
:0A00D00084B3846884BB8B9A089502
:0400DA000C94000082
:0400DE00D29A089515
:0400E200D39A089510
:00000001FF
