:100000000C942A000C94D0000C94D0000C94D000D6
:100010000C94D0000C94D0000C94D0000C94D00020
:100020000C94D0000C94D0000C94D0000C94D00010
:100030000C94D0000C94D0000C94D0000C94D00000
:100040000C94D0000C94D0000C94D0000C94D000F0
:100050000C94D00011241FBECFE5D8E0DEBFCDBF89
:0C0060000E9436000C943400F894FFCF8E
:10006C000E94CB000E94D2000E94D40080E090E05D
:10007C000E94A400892B99F061E070E082E090E08E
:10008C000E94860061E070E087E090E00E948600AC
:10009C0061E070E083E090E00E94860012C060E0B6
:1000AC0070E082E090E00E94860060E070E087E003
:1000BC0090E00E94860060E070E083E090E00E9497
:1000CC00860086E090E00E94A400892B29F081E054
:1000DC0090E00E94BF0004C080E090E00E94BF004E
:1000EC0082E090E00E94A400892B29F081E090E04E
:1000FC000E94C500BBCF80E090E00E94C500B6CF47
:10010C00672B71F08330910549F08730910521F010
:10011C00029799F4AA9A0895AF9A0895939A08951C
:10012C008330910549F08730910521F0029729F42D
:0C013C00AA980895AF980895939808952C
:100148008230910579F08630910531F0892B81F460
:1001580086B3817090E0089580B386FB882780F984
:1001680090E0089580B382FB882780F990E0089595
:0601780080E090E0089514
:0C017E00892B11F0DA9A0895DA980895A0
:0C018A00892B11F0DB9A0895DB98089592
:0A01960084B3846884BB8B9A08953B
:0401A0000C940000BB
:0401A400D29A08954E
:0401A800D39A089549
:00000001FF
